{
  "_format": "hh-sol-artifact-1",
  "contractName": "SushiSwapChallenge",
  "sourceName": "contracts/SushiSwapChallenge.sol",
  "abi": [
    {
      "anonymous": false,
      "inputs": [
        {
          "indexed": false,
          "internalType": "string",
          "name": "message",
          "type": "string"
        },
        {
          "indexed": false,
          "internalType": "uint256",
          "name": "value",
          "type": "uint256"
        }
      ],
      "name": "Log",
      "type": "event"
    },
    {
      "anonymous": false,
      "inputs": [
        {
          "indexed": false,
          "internalType": "address",
          "name": "pair",
          "type": "address"
        },
        {
          "indexed": false,
          "internalType": "uint256",
          "name": "liquidity",
          "type": "uint256"
        },
        {
          "indexed": false,
          "internalType": "uint256",
          "name": "pid",
          "type": "uint256"
        }
      ],
      "name": "sendSLP",
      "type": "event"
    },
    {
      "inputs": [],
      "name": "asdads",
      "outputs": [
        {
          "internalType": "address",
          "name": "pair",
          "type": "address"
        }
      ],
      "stateMutability": "payable",
      "type": "function"
    },
    {
      "inputs": [
        {
          "internalType": "uint256",
          "name": "_amountA",
          "type": "uint256"
        },
        {
          "internalType": "uint256",
          "name": "_amountB",
          "type": "uint256"
        },
        {
          "internalType": "uint256",
          "name": "_pid",
          "type": "uint256"
        }
      ],
      "name": "sushiLiquiditySLP",
      "outputs": [],
      "stateMutability": "nonpayable",
      "type": "function"
    },
    {
      "stateMutability": "payable",
      "type": "receive"
    }
  ],
  "bytecode": "0x608060405273c35dadb65012ec5796536bd9864ed8773abc74c46000806101000a81548173ffffffffffffffffffffffffffffffffffffffff021916908373ffffffffffffffffffffffffffffffffffffffff160217905550733fd1ea64713cf39f3c7dac66d5c449ec7900bc87600160006101000a81548173ffffffffffffffffffffffffffffffffffffffff021916908373ffffffffffffffffffffffffffffffffffffffff160217905550731b02da8cb0d097eb8d57a175b88c7d8b47997506600260006101000a81548173ffffffffffffffffffffffffffffffffffffffff021916908373ffffffffffffffffffffffffffffffffffffffff1602179055507381db9c598b3ebbdc92426422fc0a1d06e77195ec600360006101000a81548173ffffffffffffffffffffffffffffffffffffffff021916908373ffffffffffffffffffffffffffffffffffffffff16021790555073ad6d458402f60fd3bd25163575031acdce07538d600460006101000a81548173ffffffffffffffffffffffffffffffffffffffff021916908373ffffffffffffffffffffffffffffffffffffffff1602179055503480156101b857600080fd5b506112f8806101c86000396000f3fe60806040526004361061002d5760003560e01c806317f5700c14610039578063c31f64bd1461005757610034565b3661003457005b600080fd5b610041610080565b60405161004e9190610c48565b60405180910390f35b34801561006357600080fd5b5061007e60048036038101906100799190610c9e565b61017d565b005b60008060008054906101000a900473ffffffffffffffffffffffffffffffffffffffff1673ffffffffffffffffffffffffffffffffffffffff1663c9c65396600360009054906101000a900473ffffffffffffffffffffffffffffffffffffffff16600460009054906101000a900473ffffffffffffffffffffffffffffffffffffffff166040518363ffffffff1660e01b8152600401610122929190610cf1565b602060405180830381600087803b15801561013c57600080fd5b505af1158015610150573d6000803e3d6000fd5b505050506040513d601f19601f820116820180604052508101906101749190610d46565b90508091505090565b6000831415801561018f575060008214155b6101ce576040517f08c379a00000000000000000000000000000000000000000000000000000000081526004016101c590610dd0565b60405180910390fd5b6000600360009054906101000a900473ffffffffffffffffffffffffffffffffffffffff1673ffffffffffffffffffffffffffffffffffffffff1663dd62ed3e33306040518363ffffffff1660e01b815260040161022d929190610cf1565b60206040518083038186803b15801561024557600080fd5b505afa158015610259573d6000803e3d6000fd5b505050506040513d601f19601f8201168201806040525081019061027d9190610e05565b90506000600460009054906101000a900473ffffffffffffffffffffffffffffffffffffffff1673ffffffffffffffffffffffffffffffffffffffff1663dd62ed3e33306040518363ffffffff1660e01b81526004016102de929190610cf1565b60206040518083038186803b1580156102f657600080fd5b505afa15801561030a573d6000803e3d6000fd5b505050506040513d601f19601f8201168201806040525081019061032e9190610e05565b905084821015610373576040517f08c379a000000000000000000000000000000000000000000000000000000000815260040161036a90610e7e565b60405180910390fd5b838110156103b6576040517f08c379a00000000000000000000000000000000000000000000000000000000081526004016103ad90610e7e565b60405180910390fd5b600085111561053457600360009054906101000a900473ffffffffffffffffffffffffffffffffffffffff1673ffffffffffffffffffffffffffffffffffffffff166323b872dd3330886040518463ffffffff1660e01b815260040161041e93929190610ead565b602060405180830381600087803b15801561043857600080fd5b505af115801561044c573d6000803e3d6000fd5b505050506040513d601f19601f820116820180604052508101906104709190610f1c565b61047957600080fd5b600460009054906101000a900473ffffffffffffffffffffffffffffffffffffffff1673ffffffffffffffffffffffffffffffffffffffff166323b872dd3330876040518463ffffffff1660e01b81526004016104d893929190610ead565b602060405180830381600087803b1580156104f257600080fd5b505af1158015610506573d6000803e3d6000fd5b505050506040513d601f19601f8201168201806040525081019061052a9190610f1c565b61053357600080fd5b5b600360009054906101000a900473ffffffffffffffffffffffffffffffffffffffff1673ffffffffffffffffffffffffffffffffffffffff1663095ea7b3600260009054906101000a900473ffffffffffffffffffffffffffffffffffffffff16876040518363ffffffff1660e01b81526004016105b3929190610f49565b602060405180830381600087803b1580156105cd57600080fd5b505af11580156105e1573d6000803e3d6000fd5b505050506040513d601f19601f820116820180604052508101906106059190610f1c565b50600460009054906101000a900473ffffffffffffffffffffffffffffffffffffffff1673ffffffffffffffffffffffffffffffffffffffff1663095ea7b3600260009054906101000a900473ffffffffffffffffffffffffffffffffffffffff16866040518363ffffffff1660e01b8152600401610685929190610f49565b602060405180830381600087803b15801561069f57600080fd5b505af11580156106b3573d6000803e3d6000fd5b505050506040513d601f19601f820116820180604052508101906106d79190610f1c565b506000806000600260009054906101000a900473ffffffffffffffffffffffffffffffffffffffff1673ffffffffffffffffffffffffffffffffffffffff1663e8e33700600360009054906101000a900473ffffffffffffffffffffffffffffffffffffffff16600460009054906101000a900473ffffffffffffffffffffffffffffffffffffffff168b8b60008030426040518963ffffffff1660e01b815260040161078b989796959493929190610fb7565b606060405180830381600087803b1580156107a557600080fd5b505af11580156107b9573d6000803e3d6000fd5b505050506040513d601f19601f820116820180604052508101906107dd9190611035565b9250925092507fdd970dd9b5bfe707922155b058a407655cb18288b807e2216442bca8ad83d6b58360405161081291906110d4565b60405180910390a17fdd970dd9b5bfe707922155b058a407655cb18288b807e2216442bca8ad83d6b582604051610849919061114e565b60405180910390a17fdd970dd9b5bfe707922155b058a407655cb18288b807e2216442bca8ad83d6b58160405161088091906111c8565b60405180910390a160008060009054906101000a900473ffffffffffffffffffffffffffffffffffffffff1673ffffffffffffffffffffffffffffffffffffffff1663e6a43905600360009054906101000a900473ffffffffffffffffffffffffffffffffffffffff16600460009054906101000a900473ffffffffffffffffffffffffffffffffffffffff166040518363ffffffff1660e01b815260040161092a929190610cf1565b60206040518083038186803b15801561094257600080fd5b505afa158015610956573d6000803e3d6000fd5b505050506040513d601f19601f8201168201806040525081019061097a9190610d46565b90508073ffffffffffffffffffffffffffffffffffffffff1663095ea7b3600160009054906101000a900473ffffffffffffffffffffffffffffffffffffffff16846040518363ffffffff1660e01b81526004016109d9929190610f49565b602060405180830381600087803b1580156109f357600080fd5b505af1158015610a07573d6000803e3d6000fd5b505050506040513d601f19601f82011682018060405250810190610a2b9190610f1c565b508073ffffffffffffffffffffffffffffffffffffffff1663dd62ed3e33836040518363ffffffff1660e01b8152600401610a67929190610cf1565b60206040518083038186803b158015610a7f57600080fd5b505afa158015610a93573d6000803e3d6000fd5b505050506040513d601f19601f82011682018060405250810190610ab79190610e05565b50600073ffffffffffffffffffffffffffffffffffffffff168173ffffffffffffffffffffffffffffffffffffffff161415610b28576040517f08c379a0000000000000000000000000000000000000000000000000000000008152600401610b1f90611242565b60405180910390fd5b6000821115610bc157600160009054906101000a900473ffffffffffffffffffffffffffffffffffffffff1673ffffffffffffffffffffffffffffffffffffffff1663e2bbb15888846040518363ffffffff1660e01b8152600401610b8e929190611262565b600060405180830381600087803b158015610ba857600080fd5b505af1158015610bbc573d6000803e3d6000fd5b505050505b7ff2be875bcf5241c61bde4681d95be5520e8727c92f5adbe2a280fcbd879e2ae8818389604051610bf49392919061128b565b60405180910390a1505050505050505050565b600073ffffffffffffffffffffffffffffffffffffffff82169050919050565b6000610c3282610c07565b9050919050565b610c4281610c27565b82525050565b6000602082019050610c5d6000830184610c39565b92915050565b600080fd5b6000819050919050565b610c7b81610c68565b8114610c8657600080fd5b50565b600081359050610c9881610c72565b92915050565b600080600060608486031215610cb757610cb6610c63565b5b6000610cc586828701610c89565b9350506020610cd686828701610c89565b9250506040610ce786828701610c89565b9150509250925092565b6000604082019050610d066000830185610c39565b610d136020830184610c39565b9392505050565b610d2381610c27565b8114610d2e57600080fd5b50565b600081519050610d4081610d1a565b92915050565b600060208284031215610d5c57610d5b610c63565b5b6000610d6a84828501610d31565b91505092915050565b600082825260208201905092915050565b7f4e4f20505545444520534552204345524f4f4f4f4f4f4f4f0000000000000000600082015250565b6000610dba601883610d73565b9150610dc582610d84565b602082019050919050565b60006020820190508181036000830152610de981610dad565b9050919050565b600081519050610dff81610c72565b92915050565b600060208284031215610e1b57610e1a610c63565b5b6000610e2984828501610df0565b91505092915050565b7f436865636b2074686520746f6b656e20616c6c6f77616e636500000000000000600082015250565b6000610e68601983610d73565b9150610e7382610e32565b602082019050919050565b60006020820190508181036000830152610e9781610e5b565b9050919050565b610ea781610c68565b82525050565b6000606082019050610ec26000830186610c39565b610ecf6020830185610c39565b610edc6040830184610e9e565b949350505050565b60008115159050919050565b610ef981610ee4565b8114610f0457600080fd5b50565b600081519050610f1681610ef0565b92915050565b600060208284031215610f3257610f31610c63565b5b6000610f4084828501610f07565b91505092915050565b6000604082019050610f5e6000830185610c39565b610f6b6020830184610e9e565b9392505050565b6000819050919050565b6000819050919050565b6000610fa1610f9c610f9784610f72565b610f7c565b610c68565b9050919050565b610fb181610f86565b82525050565b600061010082019050610fcd600083018b610c39565b610fda602083018a610c39565b610fe76040830189610e9e565b610ff46060830188610e9e565b6110016080830187610fa8565b61100e60a0830186610fa8565b61101b60c0830185610c39565b61102860e0830184610e9e565b9998505050505050505050565b60008060006060848603121561104e5761104d610c63565b5b600061105c86828701610df0565b935050602061106d86828701610df0565b925050604061107e86828701610df0565b9150509250925092565b7f43414e5449444144205355534849490000000000000000000000000000000000600082015250565b60006110be600f83610d73565b91506110c982611088565b602082019050919050565b600060408201905081810360008301526110ed816110b1565b90506110fc6020830184610e9e565b92915050565b7f43414e5449444144204441494900000000000000000000000000000000000000600082015250565b6000611138600d83610d73565b915061114382611102565b602082019050919050565b600060408201905081810360008301526111678161112b565b90506111766020830184610e9e565b92915050565b7f4c49515549444553530000000000000000000000000000000000000000000000600082015250565b60006111b2600983610d73565b91506111bd8261117c565b602082019050919050565b600060408201905081810360008301526111e1816111a5565b90506111f06020830184610e9e565b92915050565b7f706f6f6c206e6f20657869737465212100000000000000000000000000000000600082015250565b600061122c601083610d73565b9150611237826111f6565b602082019050919050565b6000602082019050818103600083015261125b8161121f565b9050919050565b60006040820190506112776000830185610e9e565b6112846020830184610e9e565b9392505050565b60006060820190506112a06000830186610c39565b6112ad6020830185610e9e565b6112ba6040830184610e9e565b94935050505056fea264697066735822122040896c346064721d08ab5f750f6cddc4a9052079f515c7e59f650023238bc35064736f6c63430008090033",
  "linkReferences": {},
  "deployedLinkReferences": {}
}