{
  "_format": "hh-sol-artifact-1",
  "contractName": "MasterChef",
  "sourceName": "contracts/interfaces/MasterChef.sol",
  "abi": [
    {
      "inputs": [
        {
          "internalType": "contract SushiToken",
          "name": "_sushi",
          "type": "address"
        },
        {
          "internalType": "address",
          "name": "_devaddr",
          "type": "address"
        },
        {
          "internalType": "uint256",
          "name": "_sushiPerBlock",
          "type": "uint256"
        },
        {
          "internalType": "uint256",
          "name": "_startBlock",
          "type": "uint256"
        },
        {
          "internalType": "uint256",
          "name": "_bonusEndBlock",
          "type": "uint256"
        }
      ],
      "stateMutability": "nonpayable",
      "type": "constructor"
    },
    {
      "anonymous": false,
      "inputs": [
        {
          "indexed": true,
          "internalType": "address",
          "name": "user",
          "type": "address"
        },
        {
          "indexed": true,
          "internalType": "uint256",
          "name": "pid",
          "type": "uint256"
        },
        {
          "indexed": false,
          "internalType": "uint256",
          "name": "amount",
          "type": "uint256"
        }
      ],
      "name": "Deposit",
      "type": "event"
    },
    {
      "anonymous": false,
      "inputs": [
        {
          "indexed": true,
          "internalType": "address",
          "name": "user",
          "type": "address"
        },
        {
          "indexed": true,
          "internalType": "uint256",
          "name": "pid",
          "type": "uint256"
        },
        {
          "indexed": false,
          "internalType": "uint256",
          "name": "amount",
          "type": "uint256"
        }
      ],
      "name": "EmergencyWithdraw",
      "type": "event"
    },
    {
      "anonymous": false,
      "inputs": [
        {
          "indexed": true,
          "internalType": "address",
          "name": "previousOwner",
          "type": "address"
        },
        {
          "indexed": true,
          "internalType": "address",
          "name": "newOwner",
          "type": "address"
        }
      ],
      "name": "OwnershipTransferred",
      "type": "event"
    },
    {
      "anonymous": false,
      "inputs": [
        {
          "indexed": true,
          "internalType": "address",
          "name": "user",
          "type": "address"
        },
        {
          "indexed": true,
          "internalType": "uint256",
          "name": "pid",
          "type": "uint256"
        },
        {
          "indexed": false,
          "internalType": "uint256",
          "name": "amount",
          "type": "uint256"
        }
      ],
      "name": "Withdraw",
      "type": "event"
    },
    {
      "inputs": [],
      "name": "BONUS_MULTIPLIER",
      "outputs": [
        {
          "internalType": "uint256",
          "name": "",
          "type": "uint256"
        }
      ],
      "stateMutability": "view",
      "type": "function"
    },
    {
      "inputs": [
        {
          "internalType": "uint256",
          "name": "_allocPoint",
          "type": "uint256"
        },
        {
          "internalType": "contract IERC20",
          "name": "_lpToken",
          "type": "address"
        },
        {
          "internalType": "bool",
          "name": "_withUpdate",
          "type": "bool"
        }
      ],
      "name": "add",
      "outputs": [],
      "stateMutability": "nonpayable",
      "type": "function"
    },
    {
      "inputs": [],
      "name": "bonusEndBlock",
      "outputs": [
        {
          "internalType": "uint256",
          "name": "",
          "type": "uint256"
        }
      ],
      "stateMutability": "view",
      "type": "function"
    },
    {
      "inputs": [
        {
          "internalType": "uint256",
          "name": "_pid",
          "type": "uint256"
        },
        {
          "internalType": "uint256",
          "name": "_amount",
          "type": "uint256"
        }
      ],
      "name": "deposit",
      "outputs": [],
      "stateMutability": "nonpayable",
      "type": "function"
    },
    {
      "inputs": [
        {
          "internalType": "address",
          "name": "_devaddr",
          "type": "address"
        }
      ],
      "name": "dev",
      "outputs": [],
      "stateMutability": "nonpayable",
      "type": "function"
    },
    {
      "inputs": [],
      "name": "devaddr",
      "outputs": [
        {
          "internalType": "address",
          "name": "",
          "type": "address"
        }
      ],
      "stateMutability": "view",
      "type": "function"
    },
    {
      "inputs": [
        {
          "internalType": "uint256",
          "name": "_pid",
          "type": "uint256"
        }
      ],
      "name": "emergencyWithdraw",
      "outputs": [],
      "stateMutability": "nonpayable",
      "type": "function"
    },
    {
      "inputs": [
        {
          "internalType": "uint256",
          "name": "_from",
          "type": "uint256"
        },
        {
          "internalType": "uint256",
          "name": "_to",
          "type": "uint256"
        }
      ],
      "name": "getMultiplier",
      "outputs": [
        {
          "internalType": "uint256",
          "name": "",
          "type": "uint256"
        }
      ],
      "stateMutability": "view",
      "type": "function"
    },
    {
      "inputs": [],
      "name": "massUpdatePools",
      "outputs": [],
      "stateMutability": "nonpayable",
      "type": "function"
    },
    {
      "inputs": [
        {
          "internalType": "uint256",
          "name": "_pid",
          "type": "uint256"
        }
      ],
      "name": "migrate",
      "outputs": [],
      "stateMutability": "nonpayable",
      "type": "function"
    },
    {
      "inputs": [],
      "name": "migrator",
      "outputs": [
        {
          "internalType": "contract IMigratorChef",
          "name": "",
          "type": "address"
        }
      ],
      "stateMutability": "view",
      "type": "function"
    },
    {
      "inputs": [],
      "name": "owner",
      "outputs": [
        {
          "internalType": "address",
          "name": "",
          "type": "address"
        }
      ],
      "stateMutability": "view",
      "type": "function"
    },
    {
      "inputs": [
        {
          "internalType": "uint256",
          "name": "_pid",
          "type": "uint256"
        },
        {
          "internalType": "address",
          "name": "_user",
          "type": "address"
        }
      ],
      "name": "pendingSushi",
      "outputs": [
        {
          "internalType": "uint256",
          "name": "",
          "type": "uint256"
        }
      ],
      "stateMutability": "view",
      "type": "function"
    },
    {
      "inputs": [
        {
          "internalType": "uint256",
          "name": "",
          "type": "uint256"
        }
      ],
      "name": "poolInfo",
      "outputs": [
        {
          "internalType": "contract IERC20",
          "name": "lpToken",
          "type": "address"
        },
        {
          "internalType": "uint256",
          "name": "allocPoint",
          "type": "uint256"
        },
        {
          "internalType": "uint256",
          "name": "lastRewardBlock",
          "type": "uint256"
        },
        {
          "internalType": "uint256",
          "name": "accSushiPerShare",
          "type": "uint256"
        }
      ],
      "stateMutability": "view",
      "type": "function"
    },
    {
      "inputs": [],
      "name": "poolLength",
      "outputs": [
        {
          "internalType": "uint256",
          "name": "",
          "type": "uint256"
        }
      ],
      "stateMutability": "view",
      "type": "function"
    },
    {
      "inputs": [],
      "name": "renounceOwnership",
      "outputs": [],
      "stateMutability": "nonpayable",
      "type": "function"
    },
    {
      "inputs": [
        {
          "internalType": "uint256",
          "name": "_pid",
          "type": "uint256"
        },
        {
          "internalType": "uint256",
          "name": "_allocPoint",
          "type": "uint256"
        },
        {
          "internalType": "bool",
          "name": "_withUpdate",
          "type": "bool"
        }
      ],
      "name": "set",
      "outputs": [],
      "stateMutability": "nonpayable",
      "type": "function"
    },
    {
      "inputs": [
        {
          "internalType": "contract IMigratorChef",
          "name": "_migrator",
          "type": "address"
        }
      ],
      "name": "setMigrator",
      "outputs": [],
      "stateMutability": "nonpayable",
      "type": "function"
    },
    {
      "inputs": [],
      "name": "startBlock",
      "outputs": [
        {
          "internalType": "uint256",
          "name": "",
          "type": "uint256"
        }
      ],
      "stateMutability": "view",
      "type": "function"
    },
    {
      "inputs": [],
      "name": "sushi",
      "outputs": [
        {
          "internalType": "contract SushiToken",
          "name": "",
          "type": "address"
        }
      ],
      "stateMutability": "view",
      "type": "function"
    },
    {
      "inputs": [],
      "name": "sushiPerBlock",
      "outputs": [
        {
          "internalType": "uint256",
          "name": "",
          "type": "uint256"
        }
      ],
      "stateMutability": "view",
      "type": "function"
    },
    {
      "inputs": [],
      "name": "totalAllocPoint",
      "outputs": [
        {
          "internalType": "uint256",
          "name": "",
          "type": "uint256"
        }
      ],
      "stateMutability": "view",
      "type": "function"
    },
    {
      "inputs": [
        {
          "internalType": "address",
          "name": "newOwner",
          "type": "address"
        }
      ],
      "name": "transferOwnership",
      "outputs": [],
      "stateMutability": "nonpayable",
      "type": "function"
    },
    {
      "inputs": [
        {
          "internalType": "uint256",
          "name": "_pid",
          "type": "uint256"
        }
      ],
      "name": "updatePool",
      "outputs": [],
      "stateMutability": "nonpayable",
      "type": "function"
    },
    {
      "inputs": [
        {
          "internalType": "uint256",
          "name": "",
          "type": "uint256"
        },
        {
          "internalType": "address",
          "name": "",
          "type": "address"
        }
      ],
      "name": "userInfo",
      "outputs": [
        {
          "internalType": "uint256",
          "name": "amount",
          "type": "uint256"
        },
        {
          "internalType": "uint256",
          "name": "rewardDebt",
          "type": "uint256"
        }
      ],
      "stateMutability": "view",
      "type": "function"
    },
    {
      "inputs": [
        {
          "internalType": "uint256",
          "name": "_pid",
          "type": "uint256"
        },
        {
          "internalType": "uint256",
          "name": "_amount",
          "type": "uint256"
        }
      ],
      "name": "withdraw",
      "outputs": [],
      "stateMutability": "nonpayable",
      "type": "function"
    }
  ],
  "bytecode": "0x608060405260006008553480156200001657600080fd5b50604051620032603803806200326083398181016040528101906200003c9190620002b4565b6200005c62000050620000fe60201b60201c565b6200010660201b60201c565b84600160006101000a81548173ffffffffffffffffffffffffffffffffffffffff021916908373ffffffffffffffffffffffffffffffffffffffff16021790555083600260006101000a81548173ffffffffffffffffffffffffffffffffffffffff021916908373ffffffffffffffffffffffffffffffffffffffff16021790555082600481905550806003819055508160098190555050505050506200033c565b600033905090565b60008060009054906101000a900473ffffffffffffffffffffffffffffffffffffffff169050816000806101000a81548173ffffffffffffffffffffffffffffffffffffffff021916908373ffffffffffffffffffffffffffffffffffffffff1602179055508173ffffffffffffffffffffffffffffffffffffffff168173ffffffffffffffffffffffffffffffffffffffff167f8be0079c531659141344cd1fd0a4f28419497f9722a3daafe3b4186f6b6457e060405160405180910390a35050565b600080fd5b600073ffffffffffffffffffffffffffffffffffffffff82169050919050565b6000620001fc82620001cf565b9050919050565b60006200021082620001ef565b9050919050565b620002228162000203565b81146200022e57600080fd5b50565b600081519050620002428162000217565b92915050565b6200025381620001ef565b81146200025f57600080fd5b50565b600081519050620002738162000248565b92915050565b6000819050919050565b6200028e8162000279565b81146200029a57600080fd5b50565b600081519050620002ae8162000283565b92915050565b600080600080600060a08688031215620002d357620002d2620001ca565b5b6000620002e38882890162000231565b9550506020620002f68882890162000262565b945050604062000309888289016200029d565b93505060606200031c888289016200029d565b92505060806200032f888289016200029d565b9150509295509295909350565b612f14806200034c6000396000f3fe608060405234801561001057600080fd5b506004361061018e5760003560e01c8063630b5ba1116100de5780638da5cb5b11610097578063b0bcf42a11610071578063b0bcf42a1461043b578063d49e77cd14610459578063e2bbb15814610477578063f2fde38b146104935761018e565b80638da5cb5b146103bc5780638dbb1e3a146103da57806393f1a40b1461040a5761018e565b8063630b5ba11461033457806364482f791461033e578063715018a61461035a5780637cd07e47146103645780638aa28550146103825780638d88a90e146103a05761018e565b80631eaaa0451161014b578063454b060811610125578063454b0608146102c257806348cd4cb1146102de57806351eb05a6146102fc5780635312ea8e146103185761018e565b80631eaaa0451461026e57806323cf31181461028a578063441a3e70146102a65761018e565b8063081e3eda146101935780630a087903146101b15780631526fe27146101cf57806317caf6f114610202578063195426ec146102205780631aed655314610250575b600080fd5b61019b6104af565b6040516101a89190612126565b60405180910390f35b6101b96104bc565b6040516101c691906121c0565b60405180910390f35b6101e960048036038101906101e4919061220c565b6104e2565b6040516101f9949392919061225a565b60405180910390f35b61020a610542565b6040516102179190612126565b60405180910390f35b61023a600480360381019061023591906122dd565b610548565b6040516102479190612126565b60405180910390f35b61025861077c565b6040516102659190612126565b60405180910390f35b61028860048036038101906102839190612393565b610782565b005b6102a4600480360381019061029f9190612424565b61089b565b005b6102c060048036038101906102bb9190612451565b6108e7565b005b6102dc60048036038101906102d7919061220c565b610b19565b005b6102e6610e99565b6040516102f39190612126565b60405180910390f35b6103166004803603810190610311919061220c565b610e9f565b005b610332600480360381019061032d919061220c565b6111a1565b005b61033c6112da565b005b61035860048036038101906103539190612491565b61130d565b005b6103626113a5565b005b61036c6113b9565b6040516103799190612505565b60405180910390f35b61038a6113df565b6040516103979190612126565b60405180910390f35b6103ba60048036038101906103b59190612520565b6113e4565b005b6103c46114b8565b6040516103d1919061255c565b60405180910390f35b6103f460048036038101906103ef9190612451565b6114e1565b6040516104019190612126565b60405180910390f35b610424600480360381019061041f91906122dd565b611593565b604051610432929190612577565b60405180910390f35b6104436115c4565b6040516104509190612126565b60405180910390f35b6104616115ca565b60405161046e919061255c565b60405180910390f35b610491600480360381019061048c9190612451565b6115f0565b005b6104ad60048036038101906104a89190612520565b6117eb565b005b6000600680549050905090565b600160009054906101000a900473ffffffffffffffffffffffffffffffffffffffff1681565b600681815481106104f257600080fd5b90600052602060002090600402016000915090508060000160009054906101000a900473ffffffffffffffffffffffffffffffffffffffff16908060010154908060020154908060030154905084565b60085481565b6000806006848154811061055f5761055e6125a0565b5b9060005260206000209060040201905060006007600086815260200190815260200160002060008573ffffffffffffffffffffffffffffffffffffffff1673ffffffffffffffffffffffffffffffffffffffff168152602001908152602001600020905060008260030154905060008360000160009054906101000a900473ffffffffffffffffffffffffffffffffffffffff1673ffffffffffffffffffffffffffffffffffffffff166370a08231306040518263ffffffff1660e01b815260040161062b919061255c565b60206040518083038186803b15801561064357600080fd5b505afa158015610657573d6000803e3d6000fd5b505050506040513d601f19601f8201168201806040525081019061067b91906125e4565b9050836002015443118015610691575060008114155b1561072c5760006106a68560020154436114e1565b905060006106e96008546106db88600101546106cd6004548761186f90919063ffffffff16565b61186f90919063ffffffff16565b61188590919063ffffffff16565b90506107276107188461070a64e8d4a510008561186f90919063ffffffff16565b61188590919063ffffffff16565b8561189b90919063ffffffff16565b935050505b610770836001015461076264e8d4a5100061075486886000015461186f90919063ffffffff16565b61188590919063ffffffff16565b6118b190919063ffffffff16565b94505050505092915050565b60035481565b61078a6118c7565b8015610799576107986112da565b5b600060095443116107ac576009546107ae565b435b90506107c58460085461189b90919063ffffffff16565b600881905550600660405180608001604052808573ffffffffffffffffffffffffffffffffffffffff1681526020018681526020018381526020016000815250908060018154018082558091505060019003906000526020600020906004020160009091909190915060008201518160000160006101000a81548173ffffffffffffffffffffffffffffffffffffffff021916908373ffffffffffffffffffffffffffffffffffffffff160217905550602082015181600101556040820151816002015560608201518160030155505050505050565b6108a36118c7565b80600560006101000a81548173ffffffffffffffffffffffffffffffffffffffff021916908373ffffffffffffffffffffffffffffffffffffffff16021790555050565b6000600683815481106108fd576108fc6125a0565b5b9060005260206000209060040201905060006007600085815260200190815260200160002060003373ffffffffffffffffffffffffffffffffffffffff1673ffffffffffffffffffffffffffffffffffffffff168152602001908152602001600020905082816000015410156109a8576040517f08c379a000000000000000000000000000000000000000000000000000000000815260040161099f9061266e565b60405180910390fd5b6109b184610e9f565b60006109fb82600101546109ed64e8d4a510006109df8760030154876000015461186f90919063ffffffff16565b61188590919063ffffffff16565b6118b190919063ffffffff16565b90506000811115610a1157610a103382611945565b5b6000841115610a8957610a318483600001546118b190919063ffffffff16565b8260000181905550610a8833858560000160009054906101000a900473ffffffffffffffffffffffffffffffffffffffff1673ffffffffffffffffffffffffffffffffffffffff16611b679092919063ffffffff16565b5b610abb64e8d4a51000610aad8560030154856000015461186f90919063ffffffff16565b61188590919063ffffffff16565b8260010181905550843373ffffffffffffffffffffffffffffffffffffffff167ff279e6a1f5e320cca91135676d9cb6e44ca8a08c0b88342bcdb1144f6511b56886604051610b0a9190612126565b60405180910390a35050505050565b600073ffffffffffffffffffffffffffffffffffffffff16600560009054906101000a900473ffffffffffffffffffffffffffffffffffffffff1673ffffffffffffffffffffffffffffffffffffffff161415610bab576040517f08c379a0000000000000000000000000000000000000000000000000000000008152600401610ba2906126da565b60405180910390fd5b600060068281548110610bc157610bc06125a0565b5b9060005260206000209060040201905060008160000160009054906101000a900473ffffffffffffffffffffffffffffffffffffffff16905060008173ffffffffffffffffffffffffffffffffffffffff166370a08231306040518263ffffffff1660e01b8152600401610c35919061255c565b60206040518083038186803b158015610c4d57600080fd5b505afa158015610c61573d6000803e3d6000fd5b505050506040513d601f19601f82011682018060405250810190610c8591906125e4565b9050610cd4600560009054906101000a900473ffffffffffffffffffffffffffffffffffffffff16828473ffffffffffffffffffffffffffffffffffffffff16611bed9092919063ffffffff16565b6000600560009054906101000a900473ffffffffffffffffffffffffffffffffffffffff1673ffffffffffffffffffffffffffffffffffffffff1663ce5494bb846040518263ffffffff1660e01b8152600401610d3191906126fa565b602060405180830381600087803b158015610d4b57600080fd5b505af1158015610d5f573d6000803e3d6000fd5b505050506040513d601f19601f82011682018060405250810190610d83919061272a565b90508073ffffffffffffffffffffffffffffffffffffffff166370a08231306040518263ffffffff1660e01b8152600401610dbe919061255c565b60206040518083038186803b158015610dd657600080fd5b505afa158015610dea573d6000803e3d6000fd5b505050506040513d601f19601f82011682018060405250810190610e0e91906125e4565b8214610e4f576040517f08c379a0000000000000000000000000000000000000000000000000000000008152600401610e46906127a3565b60405180910390fd5b808460000160006101000a81548173ffffffffffffffffffffffffffffffffffffffff021916908373ffffffffffffffffffffffffffffffffffffffff1602179055505050505050565b60095481565b600060068281548110610eb557610eb46125a0565b5b9060005260206000209060040201905080600201544311610ed6575061119e565b60008160000160009054906101000a900473ffffffffffffffffffffffffffffffffffffffff1673ffffffffffffffffffffffffffffffffffffffff166370a08231306040518263ffffffff1660e01b8152600401610f35919061255c565b60206040518083038186803b158015610f4d57600080fd5b505afa158015610f61573d6000803e3d6000fd5b505050506040513d601f19601f82011682018060405250810190610f8591906125e4565b90506000811415610fa057438260020181905550505061119e565b6000610fb08360020154436114e1565b90506000610ff3600854610fe58660010154610fd76004548761186f90919063ffffffff16565b61186f90919063ffffffff16565b61188590919063ffffffff16565b9050600160009054906101000a900473ffffffffffffffffffffffffffffffffffffffff1673ffffffffffffffffffffffffffffffffffffffff166340c10f19600260009054906101000a900473ffffffffffffffffffffffffffffffffffffffff1661106a600a8561188590919063ffffffff16565b6040518363ffffffff1660e01b81526004016110879291906127c3565b600060405180830381600087803b1580156110a157600080fd5b505af11580156110b5573d6000803e3d6000fd5b50505050600160009054906101000a900473ffffffffffffffffffffffffffffffffffffffff1673ffffffffffffffffffffffffffffffffffffffff166340c10f1930836040518363ffffffff1660e01b81526004016111169291906127c3565b600060405180830381600087803b15801561113057600080fd5b505af1158015611144573d6000803e3d6000fd5b505050506111886111758461116764e8d4a510008561186f90919063ffffffff16565b61188590919063ffffffff16565b856003015461189b90919063ffffffff16565b8460030181905550438460020181905550505050505b50565b6000600682815481106111b7576111b66125a0565b5b9060005260206000209060040201905060006007600084815260200190815260200160002060003373ffffffffffffffffffffffffffffffffffffffff1673ffffffffffffffffffffffffffffffffffffffff168152602001908152602001600020905061126e3382600001548460000160009054906101000a900473ffffffffffffffffffffffffffffffffffffffff1673ffffffffffffffffffffffffffffffffffffffff16611b679092919063ffffffff16565b823373ffffffffffffffffffffffffffffffffffffffff167fbb757047c2b5f3974fe26b7c10f732e7bce710b0952a71082702781e62ae059583600001546040516112b99190612126565b60405180910390a36000816000018190555060008160010181905550505050565b6000600680549050905060005b81811015611309576112f881610e9f565b806113029061281b565b90506112e7565b5050565b6113156118c7565b8015611324576113236112da565b5b611370826113626006868154811061133f5761133e6125a0565b5b9060005260206000209060040201600101546008546118b190919063ffffffff16565b61189b90919063ffffffff16565b600881905550816006848154811061138b5761138a6125a0565b5b906000526020600020906004020160010181905550505050565b6113ad6118c7565b6113b76000611d4b565b565b600560009054906101000a900473ffffffffffffffffffffffffffffffffffffffff1681565b600a81565b600260009054906101000a900473ffffffffffffffffffffffffffffffffffffffff1673ffffffffffffffffffffffffffffffffffffffff163373ffffffffffffffffffffffffffffffffffffffff1614611474576040517f08c379a000000000000000000000000000000000000000000000000000000000815260040161146b906128b0565b60405180910390fd5b80600260006101000a81548173ffffffffffffffffffffffffffffffffffffffff021916908373ffffffffffffffffffffffffffffffffffffffff16021790555050565b60008060009054906101000a900473ffffffffffffffffffffffffffffffffffffffff16905090565b6000600354821161151957611512600a61150485856118b190919063ffffffff16565b61186f90919063ffffffff16565b905061158d565b600354831061153c5761153583836118b190919063ffffffff16565b905061158d565b61158a611554600354846118b190919063ffffffff16565b61157c600a61156e876003546118b190919063ffffffff16565b61186f90919063ffffffff16565b61189b90919063ffffffff16565b90505b92915050565b6007602052816000526040600020602052806000526040600020600091509150508060000154908060010154905082565b60045481565b600260009054906101000a900473ffffffffffffffffffffffffffffffffffffffff1681565b600060068381548110611606576116056125a0565b5b9060005260206000209060040201905060006007600085815260200190815260200160002060003373ffffffffffffffffffffffffffffffffffffffff1673ffffffffffffffffffffffffffffffffffffffff168152602001908152602001600020905061167384610e9f565b6000816000015411156116e25760006116ca82600101546116bc64e8d4a510006116ae8760030154876000015461186f90919063ffffffff16565b61188590919063ffffffff16565b6118b190919063ffffffff16565b905060008111156116e0576116df3382611945565b5b505b600083111561175c5761173c3330858560000160009054906101000a900473ffffffffffffffffffffffffffffffffffffffff1673ffffffffffffffffffffffffffffffffffffffff16611e0f909392919063ffffffff16565b61175383826000015461189b90919063ffffffff16565b81600001819055505b61178e64e8d4a510006117808460030154846000015461186f90919063ffffffff16565b61188590919063ffffffff16565b8160010181905550833373ffffffffffffffffffffffffffffffffffffffff167f90890809c654f11d6e72a28fa60149770a0d11ec6c92319d6ceb2bb0a4ea1a15856040516117dd9190612126565b60405180910390a350505050565b6117f36118c7565b600073ffffffffffffffffffffffffffffffffffffffff168173ffffffffffffffffffffffffffffffffffffffff161415611863576040517f08c379a000000000000000000000000000000000000000000000000000000000815260040161185a90612942565b60405180910390fd5b61186c81611d4b565b50565b6000818361187d9190612962565b905092915050565b6000818361189391906129eb565b905092915050565b600081836118a99190612a1c565b905092915050565b600081836118bf9190612a72565b905092915050565b6118cf611e98565b73ffffffffffffffffffffffffffffffffffffffff166118ed6114b8565b73ffffffffffffffffffffffffffffffffffffffff1614611943576040517f08c379a000000000000000000000000000000000000000000000000000000000815260040161193a90612af2565b60405180910390fd5b565b6000600160009054906101000a900473ffffffffffffffffffffffffffffffffffffffff1673ffffffffffffffffffffffffffffffffffffffff166370a08231306040518263ffffffff1660e01b81526004016119a2919061255c565b60206040518083038186803b1580156119ba57600080fd5b505afa1580156119ce573d6000803e3d6000fd5b505050506040513d601f19601f820116820180604052508101906119f291906125e4565b905080821115611ab157600160009054906101000a900473ffffffffffffffffffffffffffffffffffffffff1673ffffffffffffffffffffffffffffffffffffffff1663a9059cbb84836040518363ffffffff1660e01b8152600401611a599291906127c3565b602060405180830381600087803b158015611a7357600080fd5b505af1158015611a87573d6000803e3d6000fd5b505050506040513d601f19601f82011682018060405250810190611aab9190612b27565b50611b62565b600160009054906101000a900473ffffffffffffffffffffffffffffffffffffffff1673ffffffffffffffffffffffffffffffffffffffff1663a9059cbb84846040518363ffffffff1660e01b8152600401611b0e9291906127c3565b602060405180830381600087803b158015611b2857600080fd5b505af1158015611b3c573d6000803e3d6000fd5b505050506040513d601f19601f82011682018060405250810190611b609190612b27565b505b505050565b611be88363a9059cbb60e01b8484604051602401611b869291906127c3565b604051602081830303815290604052907bffffffffffffffffffffffffffffffffffffffffffffffffffffffff19166020820180517bffffffffffffffffffffffffffffffffffffffffffffffffffffffff8381831617835250505050611ea0565b505050565b6000811480611c86575060008373ffffffffffffffffffffffffffffffffffffffff1663dd62ed3e30856040518363ffffffff1660e01b8152600401611c34929190612b54565b60206040518083038186803b158015611c4c57600080fd5b505afa158015611c60573d6000803e3d6000fd5b505050506040513d601f19601f82011682018060405250810190611c8491906125e4565b145b611cc5576040517f08c379a0000000000000000000000000000000000000000000000000000000008152600401611cbc90612bef565b60405180910390fd5b611d468363095ea7b360e01b8484604051602401611ce49291906127c3565b604051602081830303815290604052907bffffffffffffffffffffffffffffffffffffffffffffffffffffffff19166020820180517bffffffffffffffffffffffffffffffffffffffffffffffffffffffff8381831617835250505050611ea0565b505050565b60008060009054906101000a900473ffffffffffffffffffffffffffffffffffffffff169050816000806101000a81548173ffffffffffffffffffffffffffffffffffffffff021916908373ffffffffffffffffffffffffffffffffffffffff1602179055508173ffffffffffffffffffffffffffffffffffffffff168173ffffffffffffffffffffffffffffffffffffffff167f8be0079c531659141344cd1fd0a4f28419497f9722a3daafe3b4186f6b6457e060405160405180910390a35050565b611e92846323b872dd60e01b858585604051602401611e3093929190612c0f565b604051602081830303815290604052907bffffffffffffffffffffffffffffffffffffffffffffffffffffffff19166020820180517bffffffffffffffffffffffffffffffffffffffffffffffffffffffff8381831617835250505050611ea0565b50505050565b600033905090565b6000611f02826040518060400160405280602081526020017f5361666545524332303a206c6f772d6c6576656c2063616c6c206661696c65648152508573ffffffffffffffffffffffffffffffffffffffff16611f679092919063ffffffff16565b9050600081511115611f625780806020019051810190611f229190612b27565b611f61576040517f08c379a0000000000000000000000000000000000000000000000000000000008152600401611f5890612cb8565b60405180910390fd5b5b505050565b6060611f768484600085611f7f565b90509392505050565b606082471015611fc4576040517f08c379a0000000000000000000000000000000000000000000000000000000008152600401611fbb90612d4a565b60405180910390fd5b611fcd85612093565b61200c576040517f08c379a000000000000000000000000000000000000000000000000000000000815260040161200390612db6565b60405180910390fd5b6000808673ffffffffffffffffffffffffffffffffffffffff1685876040516120359190612e50565b60006040518083038185875af1925050503d8060008114612072576040519150601f19603f3d011682016040523d82523d6000602084013e612077565b606091505b50915091506120878282866120a6565b92505050949350505050565b600080823b905060008111915050919050565b606083156120b657829050612106565b6000835111156120c95782518084602001fd5b816040517f08c379a00000000000000000000000000000000000000000000000000000000081526004016120fd9190612ebc565b60405180910390fd5b9392505050565b6000819050919050565b6121208161210d565b82525050565b600060208201905061213b6000830184612117565b92915050565b600073ffffffffffffffffffffffffffffffffffffffff82169050919050565b6000819050919050565b600061218661218161217c84612141565b612161565b612141565b9050919050565b60006121988261216b565b9050919050565b60006121aa8261218d565b9050919050565b6121ba8161219f565b82525050565b60006020820190506121d560008301846121b1565b92915050565b600080fd5b6121e98161210d565b81146121f457600080fd5b50565b600081359050612206816121e0565b92915050565b600060208284031215612222576122216121db565b5b6000612230848285016121f7565b91505092915050565b60006122448261218d565b9050919050565b61225481612239565b82525050565b600060808201905061226f600083018761224b565b61227c6020830186612117565b6122896040830185612117565b6122966060830184612117565b95945050505050565b60006122aa82612141565b9050919050565b6122ba8161229f565b81146122c557600080fd5b50565b6000813590506122d7816122b1565b92915050565b600080604083850312156122f4576122f36121db565b5b6000612302858286016121f7565b9250506020612313858286016122c8565b9150509250929050565b60006123288261229f565b9050919050565b6123388161231d565b811461234357600080fd5b50565b6000813590506123558161232f565b92915050565b60008115159050919050565b6123708161235b565b811461237b57600080fd5b50565b60008135905061238d81612367565b92915050565b6000806000606084860312156123ac576123ab6121db565b5b60006123ba868287016121f7565b93505060206123cb86828701612346565b92505060406123dc8682870161237e565b9150509250925092565b60006123f18261229f565b9050919050565b612401816123e6565b811461240c57600080fd5b50565b60008135905061241e816123f8565b92915050565b60006020828403121561243a576124396121db565b5b60006124488482850161240f565b91505092915050565b60008060408385031215612468576124676121db565b5b6000612476858286016121f7565b9250506020612487858286016121f7565b9150509250929050565b6000806000606084860312156124aa576124a96121db565b5b60006124b8868287016121f7565b93505060206124c9868287016121f7565b92505060406124da8682870161237e565b9150509250925092565b60006124ef8261218d565b9050919050565b6124ff816124e4565b82525050565b600060208201905061251a60008301846124f6565b92915050565b600060208284031215612536576125356121db565b5b6000612544848285016122c8565b91505092915050565b6125568161229f565b82525050565b6000602082019050612571600083018461254d565b92915050565b600060408201905061258c6000830185612117565b6125996020830184612117565b9392505050565b7f4e487b7100000000000000000000000000000000000000000000000000000000600052603260045260246000fd5b6000815190506125de816121e0565b92915050565b6000602082840312156125fa576125f96121db565b5b6000612608848285016125cf565b91505092915050565b600082825260208201905092915050565b7f77697468647261773a206e6f7420676f6f640000000000000000000000000000600082015250565b6000612658601283612611565b915061266382612622565b602082019050919050565b600060208201905081810360008301526126878161264b565b9050919050565b7f6d6967726174653a206e6f206d69677261746f72000000000000000000000000600082015250565b60006126c4601483612611565b91506126cf8261268e565b602082019050919050565b600060208201905081810360008301526126f3816126b7565b9050919050565b600060208201905061270f600083018461224b565b92915050565b6000815190506127248161232f565b92915050565b6000602082840312156127405761273f6121db565b5b600061274e84828501612715565b91505092915050565b7f6d6967726174653a206261640000000000000000000000000000000000000000600082015250565b600061278d600c83612611565b915061279882612757565b602082019050919050565b600060208201905081810360008301526127bc81612780565b9050919050565b60006040820190506127d8600083018561254d565b6127e56020830184612117565b9392505050565b7f4e487b7100000000000000000000000000000000000000000000000000000000600052601160045260246000fd5b60006128268261210d565b91507fffffffffffffffffffffffffffffffffffffffffffffffffffffffffffffffff821415612859576128586127ec565b5b600182019050919050565b7f6465763a207775743f0000000000000000000000000000000000000000000000600082015250565b600061289a600983612611565b91506128a582612864565b602082019050919050565b600060208201905081810360008301526128c98161288d565b9050919050565b7f4f776e61626c653a206e6577206f776e657220697320746865207a65726f206160008201527f6464726573730000000000000000000000000000000000000000000000000000602082015250565b600061292c602683612611565b9150612937826128d0565b604082019050919050565b6000602082019050818103600083015261295b8161291f565b9050919050565b600061296d8261210d565b91506129788361210d565b9250817fffffffffffffffffffffffffffffffffffffffffffffffffffffffffffffffff04831182151516156129b1576129b06127ec565b5b828202905092915050565b7f4e487b7100000000000000000000000000000000000000000000000000000000600052601260045260246000fd5b60006129f68261210d565b9150612a018361210d565b925082612a1157612a106129bc565b5b828204905092915050565b6000612a278261210d565b9150612a328361210d565b9250827fffffffffffffffffffffffffffffffffffffffffffffffffffffffffffffffff03821115612a6757612a666127ec565b5b828201905092915050565b6000612a7d8261210d565b9150612a888361210d565b925082821015612a9b57612a9a6127ec565b5b828203905092915050565b7f4f776e61626c653a2063616c6c6572206973206e6f7420746865206f776e6572600082015250565b6000612adc602083612611565b9150612ae782612aa6565b602082019050919050565b60006020820190508181036000830152612b0b81612acf565b9050919050565b600081519050612b2181612367565b92915050565b600060208284031215612b3d57612b3c6121db565b5b6000612b4b84828501612b12565b91505092915050565b6000604082019050612b69600083018561254d565b612b76602083018461254d565b9392505050565b7f5361666545524332303a20617070726f76652066726f6d206e6f6e2d7a65726f60008201527f20746f206e6f6e2d7a65726f20616c6c6f77616e636500000000000000000000602082015250565b6000612bd9603683612611565b9150612be482612b7d565b604082019050919050565b60006020820190508181036000830152612c0881612bcc565b9050919050565b6000606082019050612c24600083018661254d565b612c31602083018561254d565b612c3e6040830184612117565b949350505050565b7f5361666545524332303a204552433230206f7065726174696f6e20646964206e60008201527f6f74207375636365656400000000000000000000000000000000000000000000602082015250565b6000612ca2602a83612611565b9150612cad82612c46565b604082019050919050565b60006020820190508181036000830152612cd181612c95565b9050919050565b7f416464726573733a20696e73756666696369656e742062616c616e636520666f60008201527f722063616c6c0000000000000000000000000000000000000000000000000000602082015250565b6000612d34602683612611565b9150612d3f82612cd8565b604082019050919050565b60006020820190508181036000830152612d6381612d27565b9050919050565b7f416464726573733a2063616c6c20746f206e6f6e2d636f6e7472616374000000600082015250565b6000612da0601d83612611565b9150612dab82612d6a565b602082019050919050565b60006020820190508181036000830152612dcf81612d93565b9050919050565b600081519050919050565b600081905092915050565b60005b83811015612e0a578082015181840152602081019050612def565b83811115612e19576000848401525b50505050565b6000612e2a82612dd6565b612e348185612de1565b9350612e44818560208601612dec565b80840191505092915050565b6000612e5c8284612e1f565b915081905092915050565b600081519050919050565b6000601f19601f8301169050919050565b6000612e8e82612e67565b612e988185612611565b9350612ea8818560208601612dec565b612eb181612e72565b840191505092915050565b60006020820190508181036000830152612ed68184612e83565b90509291505056fea26469706673582212207b87847ae5223f1fa1d592f20d645ee844b7e07b099aa625eecacd82cb1e65d564736f6c63430008090033",
  "linkReferences": {},
  "deployedLinkReferences": {}
}